{
    "contractName": "learnFunctions",
    "abi": [
        {
            "inputs": [],
            "name": "addValues",
            "outputs": [
                {
                    "internalType": "uint256",
                    "name": "",
                    "type": "uint256"
                }
            ],
            "stateMutability": "pure",
            "type": "function"
        },
        {
            "inputs": [
                {
                    "internalType": "uint256",
                    "name": "a",
                    "type": "uint256"
                },
                {
                    "internalType": "uint256",
                    "name": "b",
                    "type": "uint256"
                }
            ],
            "name": "multiplyValues",
            "outputs": [
                {
                    "internalType": "uint256",
                    "name": "",
                    "type": "uint256"
                }
            ],
            "stateMutability": "pure",
            "type": "function"
        },
        {
            "inputs": [
                {
                    "internalType": "bool",
                    "name": "closedDoor",
                    "type": "bool"
                }
            ],
            "name": "remoteControlOpen",
            "outputs": [
                {
                    "internalType": "bool",
                    "name": "",
                    "type": "bool"
                }
            ],
            "stateMutability": "nonpayable",
            "type": "function"
        }
    ],
    "bytecode": "608060405234801561001057600080fd5b50610191806100206000396000f3fe608060405234801561001057600080fd5b50600436106100415760003560e01c8063166e7bdd14610046578063273d1a3e146100615780638de969af14610085575b600080fd5b61004e610098565b6040519081526020015b60405180910390f35b61007561006f3660046100c8565b50600090565b6040519015158152602001610058565b61004e6100933660046100f1565b6100b1565b600060026003826100a98284610129565b949350505050565b6000806100be838561013c565b9150505b92915050565b6000602082840312156100da57600080fd5b813580151581146100ea57600080fd5b9392505050565b6000806040838503121561010457600080fd5b50508035926020909101359150565b634e487b7160e01b600052601160045260246000fd5b808201808211156100c2576100c2610113565b600081600019048311821515161561015657610156610113565b50029056fea2646970667358221220c17d8d15d6472471aba697beaeaf8982c5113fe0627f0a90ddae3b75947698dc64736f6c63430008100033",
    "sourcePath": "c:/Users/TheUnicornDev237/Desktop/solidity/building-smart-contracts-with-solidity/003-functions-in-solidity.sol",
    "compiler": {
        "name": "solc",
        "version": "0.8.16+commit.07a7930e"
    },
    "functionHashes": {
        "addValues()": "166e7bdd",
        "multiplyValues(uint256,uint256)": "8de969af",
        "remoteControlOpen(bool)": "273d1a3e"
    },
    "gasEstimates": {
        "creation": {
            "codeDepositCost": "80200",
            "executionCost": "129",
            "totalCost": "80329"
        },
        "external": {
            "addValues()": "269",
            "multiplyValues(uint256,uint256)": "428",
            "remoteControlOpen(bool)": "314"
        }
    }
}