{
    "contractName": "learnFunctions",
    "abi": [
        {
            "inputs": [
                {
                    "internalType": "uint256",
                    "name": "a",
                    "type": "uint256"
                },
                {
                    "internalType": "uint256",
                    "name": "b",
                    "type": "uint256"
                }
            ],
            "name": "addMultiplyValues",
            "outputs": [
                {
                    "internalType": "uint256",
                    "name": "",
                    "type": "uint256"
                }
            ],
            "stateMutability": "pure",
            "type": "function"
        },
        {
            "inputs": [],
            "name": "addValues",
            "outputs": [
                {
                    "internalType": "uint256",
                    "name": "",
                    "type": "uint256"
                }
            ],
            "stateMutability": "pure",
            "type": "function"
        },
        {
            "inputs": [
                {
                    "internalType": "bool",
                    "name": "closedDoor",
                    "type": "bool"
                }
            ],
            "name": "remoteControlOpen",
            "outputs": [
                {
                    "internalType": "bool",
                    "name": "",
                    "type": "bool"
                }
            ],
            "stateMutability": "nonpayable",
            "type": "function"
        }
    ],
    "bytecode": "608060405234801561001057600080fd5b5061016a806100206000396000f3fe608060405234801561001057600080fd5b50600436106100415760003560e01c8063166e7bdd1461004657806324d34d2614610061578063273d1a3e14610074575b600080fd5b61004e610098565b6040519081526020015b60405180910390f35b61004e61006f3660046100c8565b6100b1565b6100886100823660046100ea565b50600090565b6040519015158152602001610058565b600060026003826100a98284610113565b949350505050565b6000806100be8385610113565b9150505b92915050565b600080604083850312156100db57600080fd5b50508035926020909101359150565b6000602082840312156100fc57600080fd5b8135801515811461010c57600080fd5b9392505050565b808201808211156100c257634e487b7160e01b600052601160045260246000fdfea2646970667358221220ac11e4cb15587761cf8efa8c6d311bf88eaa5315012b979d6a9b481c985c492c64736f6c63430008100033",
    "sourcePath": "c:/Users/TheUnicornDev237/Desktop/solidity/building-smart-contracts-with-solidity/003-functions-in-solidity.sol",
    "compiler": {
        "name": "solc",
        "version": "0.8.16+commit.07a7930e"
    },
    "functionHashes": {
        "addMultiplyValues(uint256,uint256)": "24d34d26",
        "addValues()": "166e7bdd",
        "remoteControlOpen(bool)": "273d1a3e"
    },
    "gasEstimates": {
        "creation": {
            "codeDepositCost": "72400",
            "executionCost": "123",
            "totalCost": "72523"
        },
        "external": {
            "addMultiplyValues(uint256,uint256)": "infinite",
            "addValues()": "269",
            "remoteControlOpen(bool)": "336"
        }
    }
}