{
    "contractName": "learnFunctions",
    "abi": [
        {
            "inputs": [],
            "name": "addValues",
            "outputs": [
                {
                    "internalType": "uint256",
                    "name": "",
                    "type": "uint256"
                }
            ],
            "stateMutability": "pure",
            "type": "function"
        },
        {
            "inputs": [
                {
                    "internalType": "bool",
                    "name": "closedDoor",
                    "type": "bool"
                }
            ],
            "name": "remoteControlOpen",
            "outputs": [
                {
                    "internalType": "bool",
                    "name": "",
                    "type": "bool"
                }
            ],
            "stateMutability": "nonpayable",
            "type": "function"
        }
    ],
    "bytecode": "608060405234801561001057600080fd5b5061010a806100206000396000f3fe6080604052348015600f57600080fd5b506004361060325760003560e01c8063166e7bdd146037578063273d1a3e146050575b600080fd5b603d6070565b6040519081526020015b60405180910390f35b6061605b3660046087565b50600090565b60405190151581526020016047565b60006002600382607f828460ae565b949350505050565b600060208284031215609857600080fd5b8135801515811460a757600080fd5b9392505050565b8082018082111560ce57634e487b7160e01b600052601160045260246000fd5b9291505056fea2646970667358221220340cab7972cba6a3431c70245cd824459c2c484db17424f7d40869eefe446a5e64736f6c63430008100033",
    "sourcePath": "c:/Users/TheUnicornDev237/Desktop/solidity/building-smart-contracts-with-solidity/functions-in-solidity.sol",
    "compiler": {
        "name": "solc",
        "version": "0.8.16+commit.07a7930e"
    },
    "functionHashes": {
        "addValues()": "166e7bdd",
        "remoteControlOpen(bool)": "273d1a3e"
    },
    "gasEstimates": {
        "creation": {
            "codeDepositCost": "53200",
            "executionCost": "105",
            "totalCost": "53305"
        },
        "external": {
            "addValues()": "269",
            "remoteControlOpen(bool)": "314"
        }
    }
}